{
  "contractName": "Wallet",
  "abi": [
    {
      "inputs": [
        {
          "internalType": "address[]",
          "name": "_approvers",
          "type": "address[]"
        },
        {
          "internalType": "uint256",
          "name": "_quorum",
          "type": "uint256"
        }
      ],
      "stateMutability": "nonpayable",
      "type": "constructor"
    },
    {
      "inputs": [
        {
          "internalType": "address",
          "name": "",
          "type": "address"
        },
        {
          "internalType": "uint256",
          "name": "",
          "type": "uint256"
        }
      ],
      "name": "approvals",
      "outputs": [
        {
          "internalType": "bool",
          "name": "",
          "type": "bool"
        }
      ],
      "stateMutability": "view",
      "type": "function",
      "constant": true
    },
    {
      "inputs": [
        {
          "internalType": "uint256",
          "name": "",
          "type": "uint256"
        }
      ],
      "name": "approvers",
      "outputs": [
        {
          "internalType": "address",
          "name": "",
          "type": "address"
        }
      ],
      "stateMutability": "view",
      "type": "function",
      "constant": true
    },
    {
      "inputs": [
        {
          "internalType": "uint256",
          "name": "",
          "type": "uint256"
        }
      ],
      "name": "transfers",
      "outputs": [
        {
          "internalType": "uint256",
          "name": "id",
          "type": "uint256"
        },
        {
          "internalType": "uint256",
          "name": "amount",
          "type": "uint256"
        },
        {
          "internalType": "address payable",
          "name": "to",
          "type": "address"
        },
        {
          "internalType": "uint256",
          "name": "approvals",
          "type": "uint256"
        },
        {
          "internalType": "bool",
          "name": "sent",
          "type": "bool"
        }
      ],
      "stateMutability": "view",
      "type": "function",
      "constant": true
    },
    {
      "stateMutability": "payable",
      "type": "receive",
      "payable": true
    },
    {
      "inputs": [],
      "name": "getValueOfQuorum",
      "outputs": [
        {
          "internalType": "uint256",
          "name": "",
          "type": "uint256"
        }
      ],
      "stateMutability": "view",
      "type": "function",
      "constant": true
    },
    {
      "inputs": [],
      "name": "getApprovers",
      "outputs": [
        {
          "internalType": "address[]",
          "name": "",
          "type": "address[]"
        }
      ],
      "stateMutability": "view",
      "type": "function",
      "constant": true
    },
    {
      "inputs": [],
      "name": "getTransfers",
      "outputs": [
        {
          "components": [
            {
              "internalType": "uint256",
              "name": "id",
              "type": "uint256"
            },
            {
              "internalType": "uint256",
              "name": "amount",
              "type": "uint256"
            },
            {
              "internalType": "address payable",
              "name": "to",
              "type": "address"
            },
            {
              "internalType": "uint256",
              "name": "approvals",
              "type": "uint256"
            },
            {
              "internalType": "bool",
              "name": "sent",
              "type": "bool"
            }
          ],
          "internalType": "struct Wallet.Transfer[]",
          "name": "",
          "type": "tuple[]"
        }
      ],
      "stateMutability": "view",
      "type": "function",
      "constant": true
    },
    {
      "inputs": [
        {
          "internalType": "uint256",
          "name": "amount",
          "type": "uint256"
        },
        {
          "internalType": "address payable",
          "name": "to",
          "type": "address"
        }
      ],
      "name": "createTransfers",
      "outputs": [],
      "stateMutability": "nonpayable",
      "type": "function"
    },
    {
      "inputs": [
        {
          "internalType": "uint256",
          "name": "id",
          "type": "uint256"
        }
      ],
      "name": "approveTransfer",
      "outputs": [],
      "stateMutability": "nonpayable",
      "type": "function"
    }
  ],
  "bytecode": "0x60806040523480156200001157600080fd5b506040516200131e3803806200131e8339818101604052620000379190810190620001ef565b81600090805190602001906200004f9291906200005f565b5080600181905550505062000312565b828054828255906000526020600020908101928215620000db579160200282015b82811115620000da5782518260006101000a81548173ffffffffffffffffffffffffffffffffffffffff021916908373ffffffffffffffffffffffffffffffffffffffff1602179055509160200191906001019062000080565b5b509050620000ea9190620000ee565b5090565b6200013191905b808211156200012d57600081816101000a81549073ffffffffffffffffffffffffffffffffffffffff021916905550600101620000f5565b5090565b90565b6000815190506200014581620002de565b92915050565b600082601f8301126200015d57600080fd5b8151620001746200016e8262000277565b62000249565b915081818352602084019350602081019050838560208402820111156200019a57600080fd5b60005b83811015620001ce5781620001b3888262000134565b8452602084019350602083019250506001810190506200019d565b5050505092915050565b600081519050620001e981620002f8565b92915050565b600080604083850312156200020357600080fd5b600083015167ffffffffffffffff8111156200021e57600080fd5b6200022c858286016200014b565b92505060206200023f85828601620001d8565b9150509250929050565b6000604051905081810181811067ffffffffffffffff821117156200026d57600080fd5b8060405250919050565b600067ffffffffffffffff8211156200028f57600080fd5b602082029050602081019050919050565b6000620002ad82620002b4565b9050919050565b600073ffffffffffffffffffffffffffffffffffffffff82169050919050565b6000819050919050565b620002e981620002a0565b8114620002f557600080fd5b50565b6200030381620002d4565b81146200030f57600080fd5b50565b610ffc80620003226000396000f3fe60806040526004361061007f5760003560e01c8063cacca4a01161004e578063cacca4a01461014d578063d3650fb814610176578063f3a64d50146101b3578063ffabc673146101dc57610086565b80631c6dbe921461008b5780632f65142c146100b65780636cb3e8ef146100e15780639377d7111461010c57610086565b3661008657005b600080fd5b34801561009757600080fd5b506100a0610219565b6040516100ad9190610e36565b60405180910390f35b3480156100c257600080fd5b506100cb610223565b6040516100d89190610d99565b60405180910390f35b3480156100ed57600080fd5b506100f6610311565b6040516101039190610d77565b60405180910390f35b34801561011857600080fd5b50610133600480360361012e9190810190610a6b565b61039f565b604051610144959493929190610e51565b60405180910390f35b34801561015957600080fd5b50610174600480360361016f9190810190610a6b565b61040f565b005b34801561018257600080fd5b5061019d60048036036101989190810190610a6b565b6107ab565b6040516101aa9190610d5c565b60405180910390f35b3480156101bf57600080fd5b506101da60048036036101d59190810190610a94565b6107e7565b005b3480156101e857600080fd5b5061020360048036036101fe9190810190610a2f565b6109c1565b6040516102109190610dbb565b60405180910390f35b6000600154905090565b60606002805480602002602001604051908101604052809291908181526020016000905b8282101561030857838290600052602060002090600502016040518060a001604052908160008201548152602001600182015481526020016002820160009054906101000a900473ffffffffffffffffffffffffffffffffffffffff1673ffffffffffffffffffffffffffffffffffffffff1673ffffffffffffffffffffffffffffffffffffffff168152602001600382015481526020016004820160009054906101000a900460ff16151515158152505081526020019060010190610247565b50505050905090565b6060600080548060200260200160405190810160405280929190818152602001828054801561039557602002820191906000526020600020905b8160009054906101000a900473ffffffffffffffffffffffffffffffffffffffff1673ffffffffffffffffffffffffffffffffffffffff168152602001906001019080831161034b575b5050505050905090565b600281815481106103ac57fe5b90600052602060002090600502016000915090508060000154908060010154908060020160009054906101000a900473ffffffffffffffffffffffffffffffffffffffff16908060030154908060040160009054906101000a900460ff16905085565b600080905060008090505b6000805490508110156104a4573373ffffffffffffffffffffffffffffffffffffffff166000828154811061044b57fe5b9060005260206000200160009054906101000a900473ffffffffffffffffffffffffffffffffffffffff1673ffffffffffffffffffffffffffffffffffffffff16141561049757600191505b808060010191505061041a565b5060011515811515146104ec576040517f08c379a00000000000000000000000000000000000000000000000000000000081526004016104e390610df6565b60405180910390fd5b60001515600283815481106104fd57fe5b906000526020600020906005020160040160009054906101000a900460ff1615151461055e576040517f08c379a000000000000000000000000000000000000000000000000000000000815260040161055590610e16565b60405180910390fd5b60001515600360003373ffffffffffffffffffffffffffffffffffffffff1673ffffffffffffffffffffffffffffffffffffffff168152602001908152602001600020600084815260200190815260200160002060009054906101000a900460ff16151514610602576040517f08c379a00000000000000000000000000000000000000000000000000000000081526004016105f990610dd6565b60405180910390fd5b6001600360003373ffffffffffffffffffffffffffffffffffffffff1673ffffffffffffffffffffffffffffffffffffffff168152602001908152602001600020600084815260200190815260200160002060006101000a81548160ff0219169083151502179055506002828154811061067857fe5b906000526020600020906005020160030160008154809291906001019190505550600154600283815481106106a957fe5b906000526020600020906005020160030154106107a7576001600283815481106106cf57fe5b906000526020600020906005020160040160006101000a81548160ff02191690831515021790555060006002838154811061070657fe5b906000526020600020906005020160020160009054906101000a900473ffffffffffffffffffffffffffffffffffffffff16905060006002848154811061074957fe5b90600052602060002090600502016001015490508173ffffffffffffffffffffffffffffffffffffffff166108fc829081150290604051600060405180830381858888f193505050501580156107a3573d6000803e3d6000fd5b5050505b5050565b600081815481106107b857fe5b906000526020600020016000915054906101000a900473ffffffffffffffffffffffffffffffffffffffff1681565b600080905060008090505b60008054905081101561087c573373ffffffffffffffffffffffffffffffffffffffff166000828154811061082357fe5b9060005260206000200160009054906101000a900473ffffffffffffffffffffffffffffffffffffffff1673ffffffffffffffffffffffffffffffffffffffff16141561086f57600191505b80806001019150506107f2565b5060011515811515146108c4576040517f08c379a00000000000000000000000000000000000000000000000000000000081526004016108bb90610df6565b60405180910390fd5b60026040518060a0016040528060028054905081526020018581526020018473ffffffffffffffffffffffffffffffffffffffff16815260200160008152602001600015158152509080600181540180825580915050600190039060005260206000209060050201600090919091909150600082015181600001556020820151816001015560408201518160020160006101000a81548173ffffffffffffffffffffffffffffffffffffffff021916908373ffffffffffffffffffffffffffffffffffffffff1602179055506060820151816003015560808201518160040160006101000a81548160ff0219169083151502179055505050505050565b60036020528160005260406000206020528060005260406000206000915091509054906101000a900460ff1681565b6000813590506109ff81610f81565b92915050565b600081359050610a1481610f98565b92915050565b600081359050610a2981610faf565b92915050565b60008060408385031215610a4257600080fd5b6000610a50858286016109f0565b9250506020610a6185828601610a1a565b9150509250929050565b600060208284031215610a7d57600080fd5b6000610a8b84828501610a1a565b91505092915050565b60008060408385031215610aa757600080fd5b6000610ab585828601610a1a565b9250506020610ac685828601610a05565b9150509250929050565b6000610adc8383610b1e565b60208301905092915050565b6000610af48383610cd6565b60a08301905092915050565b610b0981610f39565b82525050565b610b1881610f39565b82525050565b610b2781610f27565b82525050565b610b3681610f27565b82525050565b6000610b4782610ec4565b610b518185610ef4565b9350610b5c83610ea4565b8060005b83811015610b8d578151610b748882610ad0565b9750610b7f83610eda565b925050600181019050610b60565b5085935050505092915050565b6000610ba582610ecf565b610baf8185610f05565b9350610bba83610eb4565b8060005b83811015610beb578151610bd28882610ae8565b9750610bdd83610ee7565b925050600181019050610bbe565b5085935050505092915050565b610c0181610f4b565b82525050565b610c1081610f4b565b82525050565b6000610c23601c83610f16565b91507f43414e4e4f54205045524f524d20415050524f56414c205457494345000000006000830152602082019050919050565b6000610c63601583610f16565b91507f4f4e4c5920415050524f56455220414c4c4f57454400000000000000000000006000830152602082019050919050565b6000610ca3601e83610f16565b91507f5452414e534645522048415320414c5245414459204245454e204d41444500006000830152602082019050919050565b60a082016000820151610cec6000850182610d3e565b506020820151610cff6020850182610d3e565b506040820151610d126040850182610b00565b506060820151610d256060850182610d3e565b506080820151610d386080850182610bf8565b50505050565b610d4781610f77565b82525050565b610d5681610f77565b82525050565b6000602082019050610d716000830184610b2d565b92915050565b60006020820190508181036000830152610d918184610b3c565b905092915050565b60006020820190508181036000830152610db38184610b9a565b905092915050565b6000602082019050610dd06000830184610c07565b92915050565b60006020820190508181036000830152610def81610c16565b9050919050565b60006020820190508181036000830152610e0f81610c56565b9050919050565b60006020820190508181036000830152610e2f81610c96565b9050919050565b6000602082019050610e4b6000830184610d4d565b92915050565b600060a082019050610e666000830188610d4d565b610e736020830187610d4d565b610e806040830186610b0f565b610e8d6060830185610d4d565b610e9a6080830184610c07565b9695505050505050565b6000819050602082019050919050565b6000819050602082019050919050565b600081519050919050565b600081519050919050565b6000602082019050919050565b6000602082019050919050565b600082825260208201905092915050565b600082825260208201905092915050565b600082825260208201905092915050565b6000610f3282610f57565b9050919050565b6000610f4482610f57565b9050919050565b60008115159050919050565b600073ffffffffffffffffffffffffffffffffffffffff82169050919050565b6000819050919050565b610f8a81610f27565b8114610f9557600080fd5b50565b610fa181610f39565b8114610fac57600080fd5b50565b610fb881610f77565b8114610fc357600080fd5b5056fea26469706673582212208141862919e7ce380377fca96bc876242de35f67bed7a7c36fce1d09a1dc8dc364736f6c63430006000033",
  "source": "pragma solidity 0.6.0;\r\npragma experimental ABIEncoderV2;\r\n\r\ncontract Wallet {\r\n  address[] public approvers;\r\n  uint quorum;\r\n  struct Transfer{\r\n      uint id;\r\n      uint amount;\r\n      address payable to;\r\n      uint approvals;\r\n      bool sent;\r\n  }\r\n\r\n  Transfer[] public transfers; \r\n  mapping(address => mapping(uint => bool)) public approvals;\r\n\r\n  constructor(address[] memory _approvers, uint _quorum) public {\r\n    approvers = _approvers;\r\n    quorum = _quorum;\r\n  }\r\n\r\n  function getValueOfQuorum() external view returns(uint){\r\n    return quorum;\r\n  }\r\n\r\n  function getApprovers() external view returns(address [] memory) {\r\n      return approvers;\r\n  }\r\n\r\n  function getTransfers() external view returns(Transfer [] memory) {\r\n      return transfers;\r\n  }\r\n\r\n  function createTransfers(uint amount, address payable to) external onlyApprovers(){\r\n      transfers.push(Transfer(\r\n          transfers.length,\r\n          amount,\r\n          to,\r\n          0,\r\n          false\r\n      ));\r\n  } \r\n\r\n  function approveTransfer(uint id) external onlyApprovers() {\r\n      require(transfers[id].sent == false, 'TRANSFER HAS ALREADY BEEN MADE');\r\n      require(approvals[msg.sender][id] == false, 'CANNOT PERORM APPROVAL TWICE');\r\n\r\n      approvals[msg.sender][id] = true;\r\n      transfers[id].approvals++;\r\n\r\n      if(transfers[id].approvals >= quorum){\r\n        transfers[id].sent = true;\r\n        address payable to = transfers[id].to;\r\n        uint amount = transfers[id].amount;\r\n        to.transfer(amount);\r\n      }\r\n  }\r\n      receive() external payable {}\r\n\r\n      modifier onlyApprovers(){\r\n        bool allowed = false;\r\n        for(uint i = 0; i < approvers.length; i++ ){\r\n            if(approvers[i] == msg.sender){\r\n              allowed = true;\r\n            }\r\n        }\r\n        require(allowed == true, 'ONLY APPROVER ALLOWED');\r\n\r\n        _;\r\n      }\r\n}",
  "sourcePath": "C:\\Users\\user\\Pictures\\wallet\\contracts\\Wallet.sol",
  "compiler": {
    "name": "solc",
    "version": "0.6.0+commit.26b70077.Emscripten.clang"
  },
  "schemaVersion": "3.4.4",
  "updatedAt": "2021-12-29T13:21:18.742Z",
  "networkType": "ethereum",
  "devdoc": {
    "methods": {}
  },
  "userdoc": {
    "methods": {}
  }
}